:020000040000FA
:04000000FEEF17F008
:102C6A00456E000E426E445062EC16F0010E426E42
:102C7A00455062EC16F0120016EC17F0E90E446E9D
:102C8A002F0E456E800E466E7FEC16F0A1EC16F004
:102C9A001200000EF66E300EF76E000EF86E090086
:102CAA00F5CF47F000EE01F0410EEE6AE806FDE1CD
:102CBA00000EF86E000169EF17F0436E42B068EF3C
:102CCA0016F06BEF16F082826CEF16F0829243C018
:102CDA0083FF82848294958E8280829282848294F7
:102CEA0083BE7AEF16F07CEF16F073EF16F082903F
:102CFA00959E1200000E426E465062EC16F092EF5C
:102D0A0016F0010E426E44C0F6FF45C0F7FF0800F8
:102D1A00F55062EC16F0444A452A44C0F6FF45C015
:102D2A00F7FF0800F5500009D8A49EEF16F0A0EFAF
:102D3A0016F086EF16F01200939493861F0E6F1604
:102D4A006F8E800E6E18D8A4ADEF16F0AFEF16F0A6
:102D5A00A6EF16F0776AE10E706E1B0E716E030E07
:102D6A00726E010E0D01D46F0F01026B036B700EB0
:102D7A00006F016B8F0E186F19691F0E6F166F5057
:102D8A00606A120060AECCEF16F0CEEF16F015EFC7
:102D9A0017F04350D96EDA6A61CFDFFF6550456E8E
:102DAA00466A4250D96EDA6A45C0DEFF46C0DDFF88
:102DBA004450D96EDA6A66CFDFFF4450D96EDA6AB8
:102DCA00010ED92667CFDFFF4450D96EDA6A020EA8
:102DDA00D92668CFDFFF4450D96EDA6A030ED926A6
:102DEA0069CFDFFF4450D96EDA6A040ED9266ACF5A
:102DFA00DFFF4450D96EDA6A050ED9266BCFDFFFA2
:102E0A004450D96EDA6A060ED9266CCFDFFF4450D9
:102E1A00D96EDA6A070ED9266DCFDFFF609EA490BD
:102E2A001200956A9450F80B946E8290C30E446E09
:102E3A00CD0EE82EFED7442EFCD70000000E426EBF
:102E4A00330E62EC16F01B0E446E9E0EE82EFED771
:102E5A00442EFCD700D0000E426E330E62EC16F000
:102E6A00A60EE82EFED700D0000E426E330E62EC9C
:102E7A0016F000D000D00000000E426E020E62EC86
:102E8A0016F0A60EE82EFED700D0000E426E380EBF
:102E9A0062EC16F0A60EE82EFED700D0000E426EA7
:102EAA00010E62EC16F0040E446E3E0EE82EFED7BA
:102EBA00442EFCD7000E426E0C0E62EC16F0A60EE3
:102ECA00E82EFED700D0120041EC16F03F0E426EFB
:102EDA00410E436E270E446EC7EC16F03D0E426E4D
:102EEA00410E436E2F0E446EC7EC16F03B0E426E37
:102EFA00410E436E1F0E446EC7EC16F0390E426E39
:102F0A00410E436E170E446EC7EC16F0370E426E32
:102F1A00410E436E0F0E446EC7EC16F0DBEF17F04E
:102F2A00C00E446E275035EC16F06BEF17F0C20E48
:102F3A00446E2F5035EC16F0C30E446E305035EC0B
:102F4A0016F06BEF17F0C50E446E1F5035EC16F0F5
:102F5A00C60E446E205035EC16F0C70E446E215052
:102F6A0035EC16F0C80E446E225035EC16F06BEFB5
:102F7A0017F0CA0E446E175035EC16F0CB0E446E9D
:102F8A00185035EC16F0CC0E446E195035EC16F08C
:102F9A00CD0E446E1A5035EC16F06BEF17F0CF0ECB
:102FAA00446E0F5035EC16F06BEF17F04150100AD3
:102FBA00D8B495EF17F0300AD8B49CEF17F0100A7E
:102FCA00D8B4A8EF17F0700AD8B4BEEF17F0100AF9
:102FDA00D8B4D4EF17F06BEF17F0FEEF17F00047F5
:102FEA002053502054454D502052504D2020490026
:012FFA0000D6
:052FFC004EEF16F0018C
:020000040020DA
:08000000FFFFFFFFFFFFFFFF00
:020000040030CA
:0E000000FF071F1FFF8285FF0FC00FE00F409C
:00000001FF
