:020000040000FA
:04000000FEEF17F008
:1006000000001950800B226E19501924286E18AE64
:100610000CEF03F00EEF03F00FEF03F028802850EB
:10062000D8B415EF03F017EF03F02AEF03F02828F2
:10063000D8A41DEF03F01FEF03F027EF03F0000E27
:10064000166E000E176E000E186E000E196E188EC4
:1006500032EF03F0000E166E000E176E000E186ECD
:10066000000E196E1D50800B221A1D501D24276E7E
:100670001CAE3DEF03F03FEF03F040EF03F02780A7
:100680002750D8B446EF03F048EF03F05BEF03F0D8
:100690002728D8A44EEF03F050EF03F058EF03F0F3
:1006A000000E1A6E000E1B6E000E1C6E000E1D6EEC
:1006B0001C8E63EF03F0000E1A6E000E1B6E000E10
:1006C0001C6E000E1D6E2750D8B469EF03F06BEF5F
:1006D00003F073EF03F02850D8A471EF03F073EF29
:1006E00003F07DEF03F0000E166E000E176E000E85
:1006F000186E000E196E13EF05F01C501602F3CFA2
:100700002DF0F4CF2EF02D50236E246A256A266A30
:100710002E50296E2A6A2B6A2C6A1B501702F3CFBF
:100720002DF0F4CF2EF02D502326000E242225226A
:1007300026222E502926000E2A222B222C221A5045
:100740001802F3CF2DF0F4CF2EF02D502326000EFB
:100750002422252226222E502926000E2A222B2250
:100760002C2225C026F024C025F023C024F0236AC3
:100770001A501702F3CF2DF0F4CF2EF02D50232670
:100780002E502422000E2522000E26221B50160277
:10079000F3CF2DF0F4CF2EF02D5023262E5024220F
:1007A000000E2522000E262225C026F024C025F0AA
:1007B00023C024F0236A1A501602F3CF2DF0F4CF91
:1007C0002EF02D5023262E502422000E2522000E1E
:1007D00026221C501702F3CF2DF0F4CF2EF02D500F
:1007E00029262E502A22000E2B22000E2C221B50CE
:1007F0001802F3CF2DF0F4CF2EF02D5029262E50D5
:100800002A22000E2B22000E2C221C501802F3CF9D
:100810002DF0F4CF2EF02D501E6E2E501F6E206A3C
:10082000216A20C021F01FC020F01EC01FF01E6AE8
:100830001E5029261F502A2220502B2221502C22C4
:1008400023C01EF024C01FF025C020F026C021F0D8
:10085000190E30EF04F0D890213220321F321E32B0
:10086000E82E2BEF04F01E5029261F502A2220507C
:100870002B2221502C2225C026F024C025F023C095
:1008800024F0236A275028C01EF01F6A1E26000E7F
:100890001F22820E1E242D6EFF0E1F202E6E66EF6D
:1008A00004F0D89029362A362B362C3626AE5BEF4C
:1008B00004F05DEF04F05EEF04F02980D890233659
:1008C0002436253626362D06D8A02E062BAE6BEF05
:1008D00004F06DEF04F051EF04F0276A26AE73EFD9
:1008E00004F075EF04F099EF04F0FF0E23141E6E70
:1008F000FF0E24141F6EFF0E2514206E7F0E26148B
:10090000216E1E501F1020102110D8B48AEF04F061
:100910008CEF04F090EF04F0010E276E99EF04F0D5
:1009200029A095EF04F097EF04F099EF04F08CEF15
:1009300004F02750D8B49FEF04F0A1EF04F0C5EF06
:1009400004F0010E2926000E2A222B222C222CA094
:10095000ACEF04F0AEEF04F0C5EF04F029C01EF0D8
:100960002AC01FF02BC020F02CC021F021342132EE
:1009700020321F321E321EC029F01FC02AF020C0B4
:100980002BF021C02CF02D4A2E2A2EBED0EF04F0E1
:100990002E5008E12D28D8A0D0EF04F0D2EF04F0BB
:1009A000DCEF04F0000E296E000E2A6E800E2B6E16
:1009B0007F0E2C6E09EF05F02EBEE9EF04F02E50ED
:1009C00006E12D04D8B0E7EF04F0E9EF04F0F4EF0E
:1009D00004F0000E296E000E2A6E000E2B6E000E23
:1009E0002C6E226A09EF05F02DC028F0FF0E2916A3
:1009F000FF0E2A167F0E2B16000E2C1628A003EFD2
:100A000005F005EF05F006EF05F02B8ED8902830A5
:100A10002C6E22502C1229C016F02AC017F02BC0C1
:100A200018F02CC019F0120087EC09F012EC09F054
:100A30002D0E3B6E140E1A6EAE0E1B6EBB0E1C6E90
:100A4000400E1D6E040E38EC09F001C008F002C023
:100A500009F00A6A0B6A000E1AEC06F008C016F0DC
:100A600009C017F00AC018F00BC019F001EC03F030
:100A700016C02FF017C030F018C031F019C032F096
:100A800078EC07F02FC03DF030C03EF031C03FF0B1
:100A900032C040F03DC001F03EC002F03FC003F064
:100AA00040C004F0E80E056E030E066E000E076EE1
:100AB000000E086EFBEC07F00150300F4F6E640E15
:100AC000056E000E066E000E076E000E086E3DC02D
:100AD00001F03EC002F03FC003F040C004F0FBEC68
:100AE00007F001C00EF002C00FF003C010F004C008
:100AF00011F00A0E126E000E136E000E146E000E30
:100B0000156E94EC08F00E50300F506E0A0E056E04
:100B1000000E066E000E076E000E086E3DC001F05E
:100B20003EC002F03FC003F040C004F0FBEC07F011
:100B300001C00EF002C00FF003C010F004C011F0AD
:100B40000A0E126E000E136E000E146E000E156E5D
:100B500094EC08F00E50300F516E3DC00EF03EC0C8
:100B60000FF03FC010F040C011F00A0E126E000EE0
:100B7000136E000E146E000E156E94EC08F00E50FD
:100B8000300F526E000E026E040E016E400E036EA8
:100B90004F0E046E4DEC08F0020E3A6E450E396EA3
:100BA000AA0EE82EFED7392EFCD73A2EFAD7010E20
:100BB000D8EC08F03C6E3C04D8A4E1EF05F0E3EF7C
:100BC00005F0E7EF05F0520E3B6EFFEF05F0020E69
:100BD0003C18D8A4EEEF05F0F0EF05F0F4EF05F0C7
:100BE0004C0E3B6EFFEF05F0030E3C18D8A4FBEF54
:100BF00005F0FDEF05F0FFEF05F04F0E3B6E3BC03B
:100C000054F0000E026E010E016E500E036E540E73
:100C1000046E4DEC08F0020E3A6E450E396EAA0EC7
:100C2000E82EFED7392EFCD73A2EFAD71AEF05F068
:100C3000FEEF17F0106E1050D8B421EF06F023EF3E
:100C400006F045EF06F00BBE2AEF06F028EF06F09F
:100C500045EF06F008C00CF009C00DF00AC00EF018
:100C60000BC00FF00C1E0D1E0E1E0F1E0C2A000EC8
:100C70000D220E220F220CC012F00DC013F00EC078
:100C800014F00FC015F04DEF06F008C012F009C0C7
:100C900013F00AC014F00BC015F0085009100A1028
:100CA0000B10D8A456EF06F058EF06F062EF06F0EE
:100CB000000E086E000E096E000E0A6E000E0B6E1E
:100CC000F3EF06F0960E116E6CEF06F0112AD89035
:100CD0001532143213321232000E12140C6E000E42
:100CE00013140D6E000E14140E6EFE0E15140F6EFE
:100CF0000C500D100E100F10D8A481EF06F083EFEA
:100D000006F066EF06F091EF06F0112A010E1226AA
:100D1000000E132214221522D890153214321332E9
:100D20001232000E12140C6E000E13140D6E000E13
:100D300014140E6EFF0E15140F6E0C500D100E10C5
:100D40000F10D8A4A6EF06F0A8EF06F085EF06F086
:100D5000B0EF06F01106D890123613361436153659
:100D600014BEB5EF06F0B7EF06F0BFEF06F0020EC7
:100D70001160BDEF06F0BFEF06F0AAEF06F011B06C
:100D8000C4EF06F0C6EF06F0C7EF06F0149ED89049
:100D9000113211C00CF00D6A0E6A0F6A0CC00FF010
:100DA0000E6A0D6A0C6A0C5012120D5013120E507E
:100DB00014120F5015121050D8B4E1EF06F0E3EF03
:100DC00006F0EBEF06F00BBEEAEF06F0E8EF06F0F8
:100DD000EBEF06F0158E12C008F013C009F014C036
:100DE0000AF015C00BF01200819A818C818E81B2BD
:100DF000FCEF06F0FEEF06F001EF07F0010E77EFD3
:100E000007F081B406EF07F008EF07F00BEF07F0EB
:100E1000040E77EF07F081B610EF07F012EF07F03E
:100E200015EF07F0070E77EF07F081B81AEF07F01C
:100E30001CEF07F01FEF07F00A0E77EF07F0818A2B
:100E4000819C818E81B227EF07F029EF07F02CEF0C
:100E500007F0020E77EF07F081B431EF07F033EFC0
:100E600007F036EF07F0050E77EF07F081B63BEF9E
:100E700007F03DEF07F040EF07F0080E77EF07F0BF
:100E800081B845EF07F047EF07F04AEF07F00B0E88
:100E900077EF07F0818A818C819E819E81B253EF2A
:100EA00007F055EF07F058EF07F0030E77EF07F064
:100EB00081B45DEF07F05FEF07F062EF07F0060E19
:100EC00077EF07F081B667EF07F069EF07F06CEF97
:100ED00007F0090E77EF07F081B871EF07F073EFB5
:100EE00007F076EF07F00C0E77EF07F0FF0E120019
:100EF00031343234386E3850D8A481EF07F083EFA4
:100F000007F08DEF07F0000E2F6E000E306E000E12
:100F1000316E000E326EFAEF07F02FC033F030C0A2
:100F200034F031C035F032C036F0200E9DEF07F0BE
:100F3000D8903632353234323332E82E98EF07F01B
:100F40003350376E318EFF0E2F16FF0E3016FF0E08
:100F50003116000E3216960E385E38BEB4EF07F02A
:100F6000B2EF07F0CAEF07F03850800A970FD8B0F9
:100F7000BCEF07F0BEEF07F0C0EF07F083EF07F01C
:100F8000D8903232313230322F32383EC0EF07F053
:100F9000E2EF07F01F0E3864D0EF07F0D2EF07F052
:100FA000DAEF07F083EF07F0D8902F36303631367E
:100FB000323638063850D8A4E0EF07F0E2EF07F0F9
:100FC000D4EF07F03750D8B4E8EF07F0EAEF07F0B6
:100FD000F2EF07F0321E311E301E2F6C000E302251
:100FE000312232222FC02FF030C030F031C031F02A
:100FF00032C032F01200000E096E000E0A6E000EB2
:101000000B6E000E0C6E0550061007100810D8B4B9
:101010000CEF08F00EEF08F044EF08F0010E0D6E33
:1010200018EF08F0D89005360636073608360D2A30
:1010300008AE1DEF08F01FEF08F012EF08F0D8908F
:1010400009360A360B360C360550015C065002583C
:101050000750035808500458D8A031EF08F033EF78
:1010600008F03CEF08F00550015E0650025A0750A8
:10107000035A0850045A0980D890083207320632C1
:1010800005320D2E1FEF08F009C001F00AC002F072
:101090000BC003F00CC004F012000F01436B446B53
:1010A00003C041FF426B01C045FF0450D96EDA6AAC
:1010B000DF50466F0450D96EDA6A010ED926DF5030
:1010C000476F0450D96EDA6A020ED926DF50486F96
:1010D0000450D96EDA6A030ED926DF50496F0450E6
:1010E000D96EDA6A040ED926DF504A6F0450D96EE1
:1010F000DA6A050ED926DF504B6F0450D96EDA6AD2
:10110000060ED926DF504C6F0450D96EDA6A070EEE
:10111000D926DF504D6F408740B791EF08F093EF2D
:1011200008F08CEF08F01200125013101410151074
:10113000D8B49DEF08F09FEF08F0CFEF08F0010E54
:10114000166EA9EF08F0D8901236133614361536FD
:10115000162A15AEAEEF08F0B0EF08F0A3EF08F0D6
:1011600012500E5C13500F5814501058155011584F
:10117000D8A0BDEF08F0BFEF08F0C7EF08F012509D
:101180000E5E13500F5A1450105A1550115AD89021
:101190001532143213321232162EB0EF08F00EC090
:1011A0000EF00FC00FF010C010F011C011F01200BF
:1011B000016E0104D8A4DFEF08F0E1EF08F004EFBE
:1011C00009F0F4EC06F04E6E4E28D8B4EAEF08F0C1
:1011D000ECEF08F0F8EF08F05650D8B4F2EF08F052
:1011E000F4EF08F0F8EF08F0566A4E5011EF09F0EE
:1011F0004E28D8A4FEEF08F000EF09F010EF09F038
:10120000010E566E10EF09F00150D8A40AEF09F054
:101210000CEF09F010EF09F0F4EC06F011EF09F013
:10122000FF0E1200939493861F0E6F166F8E800E22
:101230006E18D8A41EEF09F020EF09F017EF09F09F
:10124000776AE10E706E1B0E716E030E726E010EE8
:101250000D01D46F0F01026B036B700E006F016BF9
:101260008F0E186F19691F0E6F166F50606A12008B
:10127000076E07C003F0D8900336D8900336C250EB
:10128000C30B0310C26EC282C2B249EF09F04BEF2A
:1012900009F044EF09F0C350C4CF03F0046A03C05F
:1012A00004F0036A0310056E0450066E05C001F0D9
:1012B00006C002F01200180EF66E130EF76E000E46
:1012C000F86E0900F5CF56F00900F5CF57F000EEA3
:1012D00041F0150EEE6AE806FDE1000114EF05F09D
:1012E000C08EC09AC088C096C090C082C094C2927E
:1012F000C19AC198C46AC36AC28012000F0EC16E3F
:10130000020E936EF19E8150E009816E120070EC26
:0A13100009F07EEC09F01200010163
:042FFC005BEF09F08E
:020000040020DA
:08000000FFFFFFFFFFFFFFFF00
:020000040030CA
:0E000000FF071F1FFF8285FF0FC00FE00F409C
:00000001FF
